:100000000C942A000C94A3030C94A3030C94A30354
:100010000C94A3030C94A3030C94A3030C94A303C8
:100020000C94A3030C94A3030C94A3030C94A303B8
:100030000C94A3030C94A3030C94A3030C94A303A8
:100040000C94A3030C94A3030C94A3030C94A30398
:100050000C94A30311241FBECFE5D8E0DEBFCDBFB3
:0C0060000E944C020C948C03F894FFCF1B
:10006C005541525420446F6E65204C696E6B204391
:06007C006F6E666967006B
:0B0082000100127A008025000201033B
:10008E00CF92DF92EF92A82FCB01FC012491A7FD16
:10009E002081222319F0213081F017C06C01EA2E45
:1000AE0027E0C20ED11CE11CF6012491E7FC208151
:1000BE00222331F0213049F406C04FE951E005C04A
:1000CE0042E651E002C04FEC50E059B940BD9C01F0
:1000DE004A2F295F3F4F4F4FF901249147FD208151
:1000EE00222319F0213029F007C02BB12D7F2BB917
:1000FE0003C02BB122602BB9FC012491A7FD2081F6
:10010E00222331F0213039F420B5206420BD03C004
:10011E0020B52F7B20BD9C014A2F285F3F4F4F4FAC
:10012E00F901249147FD2081213091F018F0223001
:10013E0041F014C020B52F7E20BD20B52F7D20BDEF
:10014E000DC020B52F7E20BD20B5206220BD06C07B
:10015E0020B5206120BD20B5206220BD9C014A2F14
:10016E00275F3F4F4F4FF901249147FD20812223F6
:10017E0019F0213029F007C020B5277F20BD03C01C
:10018E0020B5286020BD0A96A11DFC018491A7FD13
:10019E0080818230F9F028F4882341F0813081F09B
:1001AE0036C0833009F1843049F131C080B58D7F7E
:1001BE0080BD80B58B7F80BD8AB18B7F8AB927C009
:1001CE0080B5826080BD80B58B7F80BD8AB18B7F0C
:1001DE008AB91DC080B58D7F80BD80B5846080BD1D
:1001EE008AB18B7F8AB913C080B5826080BD80B51D
:1001FE00846080BD8AB18B7F8AB909C080B5826068
:10020E0080BD80B5846080BD8AB184608AB98AB1B0
:10021E0080618AB98AB188608AB980B5806880BDEC
:08022E00EF90DF90CF900895DE
:10023600843008F088C0683008F087C0423008F083
:1002460086C0813031F138F0823009F440C0833005
:1002560009F45BC07EC0442319F0413071F07BC0C5
:100266002AB381E090E002C0880F991F6A95E2F7F1
:10027600809582238ABB80E008952AB381E090E0CE
:1002860002C0880F991F6A95E2F7822B8ABB80E02D
:100296000895442319F0413071F05FC027B381E01F
:1002A60090E002C0880F991F6A95E2F78095822335
:1002B60087BB80E0089527B381E090E002C0880FF5
:1002C600991F6A95E2F7822B87BB80E00895442345
:1002D60019F0413071F043C024B381E090E002C0D0
:1002E600880F991F6A95E2F78095822384BB80E088
:1002F600089524B381E090E002C0880F991F6A95A3
:10030600E2F7822B84BB80E00895442319F0413044
:1003160071F027C021B381E090E002C0880F991FD9
:100326006A95E2F78095822381BB80E0089521B328
:1003360081E090E002C0880F991F6A95E2F7822B50
:1003460081BB80E0089581E0089582E0089583E00E
:10035600089581E0089583E0089583E0089583E099
:06036600089583E00895F4
:10036C00843008F085C0683008F084C0813031F1E9
:10037C0038F0823009F440C0833009F45BC07CC093
:10038C00442319F0413071F079C02BB381E090E037
:10039C0002C0880F991F6A95E2F7809582238BBB68
:1003AC0080E008952BB381E090E002C0880F991F84
:1003BC006A95E2F7822B8BBB80E00895442319F0F9
:1003CC00413071F05DC028B381E090E002C0880F2D
:1003DC00991F6A95E2F78095822388BB80E0089587
:1003EC0028B381E090E002C0880F991F6A95E2F76C
:1003FC00822B88BB80E00895442319F0413071F0C2
:10040C0041C025B381E090E002C0880F991F6A9526
:10041C00E2F78095822385BB80E0089525B381E0C7
:10042C0090E002C0880F991F6A95E2F7822B85BB7A
:10043C0080E00895442319F0413071F025C022B3B7
:10044C0081E090E002C0880F991F6A95E2F78095D1
:10045C00822382BB80E0089522B381E090E002C049
:10046C00880F991F6A95E2F7822B82BB80E0089572
:10047C0081E0089582E0089581E0089584E0089574
:0C048C0084E0089584E0089584E0089561
:10049800CF93DF93CDB7DEB766970FB6F894DEBF7C
:1004A8000FBECDBF0E942A0341E067E082E00E94B0
:1004B8001B0162E870E080E00E9447002CE630E013
:1004C80040E086E1F901DE011196742F0E947F0356
:1004D8000E949F03182F813639F541E067E082E0DA
:1004E8000E94B601812F0E94E3022FEF84E39CE073
:1004F800215080409040E1F700C000000E9497031F
:10050800CE0101960E946C032FEF84E39CE02150FA
:1005180080409040E1F700C000000E94970340E04F
:1005280067E082E00E94B601812F0E949B03C6CF3C
:10053800CF93C82F40E061E081E00E94B60140E01F
:1005480062E081E00E94B60140E063E081E00E9441
:10055800B6018BB39C2F907F8F70892B8BBB41E0AA
:1005680063E081E00E94B6018FE99FE00197F1F70F
:1005780000C0000040E063E081E00E94B60120E195
:10058800C29FC00111249BB39F70892B8BBB41E094
:1005980063E081E00E94B6018FE99FE00197F1F7DF
:1005A80000C0000040E063E081E00E94B6018FE1F6
:0E05B8009EE40197F1F700C00000CF91089576
:1005C600CF93C82F41E061E081E00E94B60140E090
:1005D60062E081E00E94B60140E063E081E00E94B3
:1005E600B6018BB39C2F907F8F70892B8BBB41E01C
:1005F60063E081E00E94B6018FE99FE00197F1F781
:1006060000C0000040E063E081E00E94B60120E106
:10061600C29FC00111249BB39F70892B8BBB41E005
:1006260063E081E00E94B6018FE99FE00197F1F750
:1006360000C0000040E063E081E00E94B6018FE167
:0E0646009EE40197F1F700C00000CF910895E7
:1006540041E061E081E00E941B0141E062E081E051
:100664000E941B0141E063E081E00E941B0141E024
:1006740064E080E00E941B0141E065E080E00E94AC
:100684001B0141E066E080E00E941B0141E067E05D
:1006940080E00E941B012FEF81EE94E02150804006
:1006A4009040E1F700C0000083E30E949C0282E3D3
:1006B4000E949C0288E20E949C0281E00E949C02AB
:1006C4008CE00E949C0286E00E949C0282E00E94D0
:0406D4009C020895E7
:1006D8000F931F93CF938C01C0E003C00E94E302E5
:1006E800CF5FF801EC0FF11D80818111F7CFCF9119
:0606F8001F910F9108950F
:1006FE00992777FD05C005900D920197E1F70895B2
:0A070E0001900D920197E1F70895A4
:10071800EC010E94A8030E94A703CE010E94A9032E
:06072800CE010E94A503B2
:08072E0081E00E949C02089585
:080736005D9BFECF8CB9089514
:08073E005F9BFECF8CB1089512
:040746000C9400000F
:04074A000E943400D5
:02074E0008950C
:0207500008950A
:02075200089508
:00000001FF
